{
  "contractName": "MasoomContract",
  "abi": [
    {
      "inputs": [],
      "payable": false,
      "stateMutability": "nonpayable",
      "type": "constructor"
    },
    {
      "constant": true,
      "inputs": [
        {
          "internalType": "uint256",
          "name": "",
          "type": "uint256"
        }
      ],
      "name": "candidateDetails",
      "outputs": [
        {
          "internalType": "string",
          "name": "name",
          "type": "string"
        },
        {
          "internalType": "string",
          "name": "party",
          "type": "string"
        },
        {
          "internalType": "string",
          "name": "manifesto",
          "type": "string"
        },
        {
          "internalType": "uint256",
          "name": "voteCount",
          "type": "uint256"
        },
        {
          "internalType": "uint256",
          "name": "constituency",
          "type": "uint256"
        },
        {
          "internalType": "uint256",
          "name": "candidateId",
          "type": "uint256"
        }
      ],
      "payable": false,
      "stateMutability": "view",
      "type": "function"
    },
    {
      "constant": true,
      "inputs": [],
      "name": "owner",
      "outputs": [
        {
          "internalType": "address",
          "name": "",
          "type": "address"
        }
      ],
      "payable": false,
      "stateMutability": "view",
      "type": "function"
    },
    {
      "constant": true,
      "inputs": [
        {
          "internalType": "address",
          "name": "",
          "type": "address"
        }
      ],
      "name": "voterDetails",
      "outputs": [
        {
          "internalType": "address",
          "name": "voterAddress",
          "type": "address"
        },
        {
          "internalType": "string",
          "name": "name",
          "type": "string"
        },
        {
          "internalType": "string",
          "name": "aadhar",
          "type": "string"
        },
        {
          "internalType": "uint256",
          "name": "constituency",
          "type": "uint256"
        },
        {
          "internalType": "bool",
          "name": "hasVoted",
          "type": "bool"
        },
        {
          "internalType": "bool",
          "name": "isVerified",
          "type": "bool"
        }
      ],
      "payable": false,
      "stateMutability": "view",
      "type": "function"
    },
    {
      "constant": true,
      "inputs": [
        {
          "internalType": "uint256",
          "name": "",
          "type": "uint256"
        }
      ],
      "name": "voters",
      "outputs": [
        {
          "internalType": "address",
          "name": "",
          "type": "address"
        }
      ],
      "payable": false,
      "stateMutability": "view",
      "type": "function"
    },
    {
      "constant": true,
      "inputs": [],
      "name": "getOwner",
      "outputs": [
        {
          "internalType": "address",
          "name": "",
          "type": "address"
        }
      ],
      "payable": false,
      "stateMutability": "view",
      "type": "function"
    },
    {
      "constant": false,
      "inputs": [
        {
          "internalType": "string",
          "name": "_name",
          "type": "string"
        },
        {
          "internalType": "string",
          "name": "_party",
          "type": "string"
        },
        {
          "internalType": "string",
          "name": "_manifesto",
          "type": "string"
        },
        {
          "internalType": "uint256",
          "name": "_constituency",
          "type": "uint256"
        }
      ],
      "name": "addCandidate",
      "outputs": [],
      "payable": false,
      "stateMutability": "nonpayable",
      "type": "function"
    },
    {
      "constant": true,
      "inputs": [],
      "name": "getCandidateNumber",
      "outputs": [
        {
          "internalType": "uint256",
          "name": "",
          "type": "uint256"
        }
      ],
      "payable": false,
      "stateMutability": "view",
      "type": "function"
    },
    {
      "constant": false,
      "inputs": [
        {
          "internalType": "string",
          "name": "_name",
          "type": "string"
        },
        {
          "internalType": "string",
          "name": "_aadhar",
          "type": "string"
        },
        {
          "internalType": "uint256",
          "name": "_constituency",
          "type": "uint256"
        }
      ],
      "name": "requestVoter",
      "outputs": [],
      "payable": false,
      "stateMutability": "nonpayable",
      "type": "function"
    },
    {
      "constant": true,
      "inputs": [],
      "name": "getVoterCount",
      "outputs": [
        {
          "internalType": "uint256",
          "name": "",
          "type": "uint256"
        }
      ],
      "payable": false,
      "stateMutability": "view",
      "type": "function"
    },
    {
      "constant": false,
      "inputs": [
        {
          "internalType": "address",
          "name": "_address",
          "type": "address"
        }
      ],
      "name": "verifyVoter",
      "outputs": [],
      "payable": false,
      "stateMutability": "nonpayable",
      "type": "function"
    },
    {
      "constant": false,
      "inputs": [
        {
          "internalType": "uint256",
          "name": "candidateId",
          "type": "uint256"
        }
      ],
      "name": "vote",
      "outputs": [],
      "payable": false,
      "stateMutability": "nonpayable",
      "type": "function"
    },
    {
      "constant": false,
      "inputs": [],
      "name": "startElection",
      "outputs": [],
      "payable": false,
      "stateMutability": "nonpayable",
      "type": "function"
    },
    {
      "constant": false,
      "inputs": [],
      "name": "endElection",
      "outputs": [],
      "payable": false,
      "stateMutability": "nonpayable",
      "type": "function"
    },
    {
      "constant": true,
      "inputs": [],
      "name": "getStart",
      "outputs": [
        {
          "internalType": "bool",
          "name": "",
          "type": "bool"
        }
      ],
      "payable": false,
      "stateMutability": "view",
      "type": "function"
    },
    {
      "constant": true,
      "inputs": [],
      "name": "getEnd",
      "outputs": [
        {
          "internalType": "bool",
          "name": "",
          "type": "bool"
        }
      ],
      "payable": false,
      "stateMutability": "view",
      "type": "function"
    }
  ],
  "bytecode": "0x608060405234801561001057600080fd5b50336000806101000a81548173ffffffffffffffffffffffffffffffffffffffff021916908373ffffffffffffffffffffffffffffffffffffffff160217905550600060018190555060006002819055506000600360006101000a81548160ff0219169083151502179055506000600360016101000a81548160ff0219169083151502179055506115a6806100a66000396000f3fe608060405234801561001057600080fd5b50600436106100f55760003560e01c806362d73eb8116100975780639f05a36d116100665780639f05a36d146106b9578063c5292c67146106db578063d6aadfba146106fd578063da58c7d9146108f0576100f5565b806362d73eb8146104bf5780637d9cf196146104c9578063893d20e8146106255780638da5cb5b1461066f576100f5565b8063364dff25116100d3578063364dff251461018a5780635938750d146101a857806359f78468146103215780636247e5321461032b576100f5565b80630121b93f146100fa57806309bd09501461012857806311174a291461016c575b600080fd5b6101266004803603602081101561011057600080fd5b810190808035906020019092919050505061095e565b005b61016a6004803603602081101561013e57600080fd5b81019080803573ffffffffffffffffffffffffffffffffffffffff169060200190929190505050610ae1565b005b610174610b98565b6040518082815260200191505060405180910390f35b610192610ba2565b6040518082815260200191505060405180910390f35b6101ea600480360360208110156101be57600080fd5b81019080803573ffffffffffffffffffffffffffffffffffffffff169060200190929190505050610bac565b604051808773ffffffffffffffffffffffffffffffffffffffff1673ffffffffffffffffffffffffffffffffffffffff16815260200180602001806020018681526020018515151515815260200184151515158152602001838103835288818151815260200191508051906020019080838360005b8381101561027a57808201518184015260208101905061025f565b50505050905090810190601f1680156102a75780820380516001836020036101000a031916815260200191505b50838103825287818151815260200191508051906020019080838360005b838110156102e05780820151818401526020810190506102c5565b50505050905090810190601f16801561030d5780820380516001836020036101000a031916815260200191505b509850505050505050505060405180910390f35b610329610d52565b005b6103576004803603602081101561034157600080fd5b8101908080359060200190929190505050610de3565b6040518080602001806020018060200187815260200186815260200185815260200184810384528a818151815260200191508051906020019080838360005b838110156103b1578082015181840152602081019050610396565b50505050905090810190601f1680156103de5780820380516001836020036101000a031916815260200191505b50848103835289818151815260200191508051906020019080838360005b838110156104175780820151818401526020810190506103fc565b50505050905090810190601f1680156104445780820380516001836020036101000a031916815260200191505b50848103825288818151815260200191508051906020019080838360005b8381101561047d578082015181840152602081019050610462565b50505050905090810190601f1680156104aa5780820380516001836020036101000a031916815260200191505b50995050505050505050505060405180910390f35b6104c7610fe7565b005b610623600480360360608110156104df57600080fd5b81019080803590602001906401000000008111156104fc57600080fd5b82018360208201111561050e57600080fd5b8035906020019184600183028401116401000000008311171561053057600080fd5b91908080601f016020809104026020016040519081016040528093929190818152602001838380828437600081840152601f19601f8201169050808301925050505050505091929192908035906020019064010000000081111561059357600080fd5b8201836020820111156105a557600080fd5b803590602001918460018302840111640100000000831117156105c757600080fd5b91908080601f016020809104026020016040519081016040528093929190818152602001838380828437600081840152601f19601f82011690508083019250505050505050919291929080359060200190929190505050611078565b005b61062d611256565b604051808273ffffffffffffffffffffffffffffffffffffffff1673ffffffffffffffffffffffffffffffffffffffff16815260200191505060405180910390f35b61067761127f565b604051808273ffffffffffffffffffffffffffffffffffffffff1673ffffffffffffffffffffffffffffffffffffffff16815260200191505060405180910390f35b6106c16112a4565b604051808215151515815260200191505060405180910390f35b6106e36112bb565b604051808215151515815260200191505060405180910390f35b6108ee6004803603608081101561071357600080fd5b810190808035906020019064010000000081111561073057600080fd5b82018360208201111561074257600080fd5b8035906020019184600183028401116401000000008311171561076457600080fd5b91908080601f016020809104026020016040519081016040528093929190818152602001838380828437600081840152601f19601f820116905080830192505050505050509192919290803590602001906401000000008111156107c757600080fd5b8201836020820111156107d957600080fd5b803590602001918460018302840111640100000000831117156107fb57600080fd5b91908080601f016020809104026020016040519081016040528093929190818152602001838380828437600081840152601f19601f8201169050808301925050505050505091929192908035906020019064010000000081111561085e57600080fd5b82018360208201111561087057600080fd5b8035906020019184600183028401116401000000008311171561089257600080fd5b91908080601f016020809104026020016040519081016040528093929190818152602001838380828437600081840152601f19601f820116905080830192505050505050509192919290803590602001909291905050506112d2565b005b61091c6004803603602081101561090657600080fd5b810190808035906020019092919050505061140a565b604051808273ffffffffffffffffffffffffffffffffffffffff1673ffffffffffffffffffffffffffffffffffffffff16815260200191505060405180910390f35b60001515600660003373ffffffffffffffffffffffffffffffffffffffff1673ffffffffffffffffffffffffffffffffffffffff16815260200190815260200160002060040160009054906101000a900460ff161515146109be57600080fd5b60011515600660003373ffffffffffffffffffffffffffffffffffffffff1673ffffffffffffffffffffffffffffffffffffffff16815260200190815260200160002060040160019054906101000a900460ff16151514610a1e57600080fd5b60011515600360009054906101000a900460ff16151514610a3e57600080fd5b60001515600360019054906101000a900460ff16151514610a5e57600080fd5b600160046000838152602001908152602001600020600301600082825401925050819055506001600660003373ffffffffffffffffffffffffffffffffffffffff1673ffffffffffffffffffffffffffffffffffffffff16815260200190815260200160002060040160006101000a81548160ff02191690831515021790555050565b6000809054906101000a900473ffffffffffffffffffffffffffffffffffffffff1673ffffffffffffffffffffffffffffffffffffffff163373ffffffffffffffffffffffffffffffffffffffff1614610b3a57600080fd5b6001600660008373ffffffffffffffffffffffffffffffffffffffff1673ffffffffffffffffffffffffffffffffffffffff16815260200190815260200160002060040160016101000a81548160ff02191690831515021790555050565b6000600254905090565b6000600154905090565b60066020528060005260406000206000915090508060000160009054906101000a900473ffffffffffffffffffffffffffffffffffffffff1690806001018054600181600116156101000203166002900480601f016020809104026020016040519081016040528092919081815260200182805460018160011615610100020316600290048015610c7e5780601f10610c5357610100808354040283529160200191610c7e565b820191906000526020600020905b815481529060010190602001808311610c6157829003601f168201915b505050505090806002018054600181600116156101000203166002900480601f016020809104026020016040519081016040528092919081815260200182805460018160011615610100020316600290048015610d1c5780601f10610cf157610100808354040283529160200191610d1c565b820191906000526020600020905b815481529060010190602001808311610cff57829003601f168201915b5050505050908060030154908060040160009054906101000a900460ff16908060040160019054906101000a900460ff16905086565b6000809054906101000a900473ffffffffffffffffffffffffffffffffffffffff1673ffffffffffffffffffffffffffffffffffffffff163373ffffffffffffffffffffffffffffffffffffffff1614610dab57600080fd5b6001600360016101000a81548160ff0219169083151502179055506000600360006101000a81548160ff021916908315150217905550565b6004602052806000526040600020600091509050806000018054600181600116156101000203166002900480601f016020809104026020016040519081016040528092919081815260200182805460018160011615610100020316600290048015610e8f5780601f10610e6457610100808354040283529160200191610e8f565b820191906000526020600020905b815481529060010190602001808311610e7257829003601f168201915b505050505090806001018054600181600116156101000203166002900480601f016020809104026020016040519081016040528092919081815260200182805460018160011615610100020316600290048015610f2d5780601f10610f0257610100808354040283529160200191610f2d565b820191906000526020600020905b815481529060010190602001808311610f1057829003601f168201915b505050505090806002018054600181600116156101000203166002900480601f016020809104026020016040519081016040528092919081815260200182805460018160011615610100020316600290048015610fcb5780601f10610fa057610100808354040283529160200191610fcb565b820191906000526020600020905b815481529060010190602001808311610fae57829003601f168201915b5050505050908060030154908060040154908060050154905086565b6000809054906101000a900473ffffffffffffffffffffffffffffffffffffffff1673ffffffffffffffffffffffffffffffffffffffff163373ffffffffffffffffffffffffffffffffffffffff161461104057600080fd5b6001600360006101000a81548160ff0219169083151502179055506000600360016101000a81548160ff021916908315150217905550565b611080611446565b6040518060c001604052803373ffffffffffffffffffffffffffffffffffffffff16815260200185815260200184815260200183815260200160001515815260200160001515815250905080600660003373ffffffffffffffffffffffffffffffffffffffff1673ffffffffffffffffffffffffffffffffffffffff16815260200190815260200160002060008201518160000160006101000a81548173ffffffffffffffffffffffffffffffffffffffff021916908373ffffffffffffffffffffffffffffffffffffffff160217905550602082015181600101908051906020019061116e929190611496565b50604082015181600201908051906020019061118b929190611496565b506060820151816003015560808201518160040160006101000a81548160ff02191690831515021790555060a08201518160040160016101000a81548160ff02191690831515021790555090505060053390806001815401808255809150509060018203906000526020600020016000909192909190916101000a81548173ffffffffffffffffffffffffffffffffffffffff021916908373ffffffffffffffffffffffffffffffffffffffff16021790555050600160026000828254019250508190555050505050565b60008060009054906101000a900473ffffffffffffffffffffffffffffffffffffffff16905090565b6000809054906101000a900473ffffffffffffffffffffffffffffffffffffffff1681565b6000600360019054906101000a900460ff16905090565b6000600360009054906101000a900460ff16905090565b6000809054906101000a900473ffffffffffffffffffffffffffffffffffffffff1673ffffffffffffffffffffffffffffffffffffffff163373ffffffffffffffffffffffffffffffffffffffff161461132b57600080fd5b611333611516565b6040518060c00160405280868152602001858152602001848152602001600081526020018381526020016001548152509050806004600060015481526020019081526020016000206000820151816000019080519060200190611397929190611496565b5060208201518160010190805190602001906113b4929190611496565b5060408201518160020190805190602001906113d1929190611496565b50606082015181600301556080820151816004015560a08201518160050155905050600180600082825401925050819055505050505050565b6005818154811061141757fe5b906000526020600020016000915054906101000a900473ffffffffffffffffffffffffffffffffffffffff1681565b6040518060c00160405280600073ffffffffffffffffffffffffffffffffffffffff1681526020016060815260200160608152602001600081526020016000151581526020016000151581525090565b828054600181600116156101000203166002900490600052602060002090601f016020900481019282601f106114d757805160ff1916838001178555611505565b82800160010185558215611505579182015b828111156115045782518255916020019190600101906114e9565b5b509050611512919061154c565b5090565b6040518060c001604052806060815260200160608152602001606081526020016000815260200160008152602001600081525090565b61156e91905b8082111561156a576000816000905550600101611552565b5090565b9056fea265627a7a72315820cdbd9cdfe2ef2ff135c4395f8938d221ccc649210ec112c50cfb8474a7216d9264736f6c63430005100032",
  "source": "pragma solidity >= 0.4.22 < 0.9.0;\n\ncontract MasoomContract {\n    address public owner;\n    uint candidateCount;\n    uint voterCount;\n    bool start;\n    bool end;\n\n    // Constructor\n    constructor() public {\n        owner = msg.sender;\n        candidateCount = 0;\n        voterCount = 0;\n        start = false;\n        end = false;\n    }\n\n    function getOwner() public view returns(address) {\n        return owner;\n    }\n    // Only Admin can access\n    modifier onlyAdmin() {\n        require(msg.sender == owner);\n        _;\n    }\n    struct Candidate {\n        string name;\n        string party;\n        string manifesto;\n        uint voteCount;\n        uint constituency;\n        uint candidateId;\n    }\n    mapping(uint => Candidate) public candidateDetails;\n    // Only admin can add candidate\n    function addCandidate(string memory _name, string memory _party, string memory _manifesto, uint _constituency) public onlyAdmin {\n        Candidate memory newCandidate = Candidate({\n            name: _name,\n            party: _party,\n            manifesto: _manifesto,\n            voteCount: 0,\n            constituency: _constituency,\n            candidateId: candidateCount\n        });\n        candidateDetails[candidateCount] = newCandidate;\n        candidateCount += 1;\n    }\n    // get total number of candidates\n    function getCandidateNumber() public view returns(uint) {\n        return candidateCount;\n    }\n    struct Voter {\n        address voterAddress;\n        string name;\n        string aadhar;\n        uint constituency;\n        bool hasVoted;\n        bool isVerified;\n    }\n    address[] public voters;\n    mapping(address => Voter) public voterDetails;\n    // request to be added as voter\n    function requestVoter(string memory _name, string memory _aadhar, uint _constituency) public {\n        Voter memory newVoter = Voter({\n            voterAddress: msg.sender,\n            name: _name,\n            aadhar: _aadhar,\n            constituency: _constituency,\n            hasVoted: false,\n            isVerified: false\n        });\n        voterDetails[msg.sender] = newVoter;\n        voters.push(msg.sender);\n        voterCount += 1;\n    }\n    // get total number of voters\n    function getVoterCount() public view returns(uint) {\n        return voterCount;\n    }\n\n    function verifyVoter(address _address) public onlyAdmin {\n        voterDetails[_address].isVerified = true;\n    }\n\n    function vote(uint candidateId) public {\n        require(voterDetails[msg.sender].hasVoted == false);\n        require(voterDetails[msg.sender].isVerified == true);\n        require(start == true);\n        require(end == false);\n        candidateDetails[candidateId].voteCount += 1;\n        voterDetails[msg.sender].hasVoted = true;\n    }\n\n    function startElection() public onlyAdmin {\n        start = true;\n        end = false;\n    }\n\n    function endElection() public onlyAdmin {\n        end = true;\n        start = false;\n    }\n\n    function getStart() public view returns(bool) {\n        return start;\n    }\n\n    function getEnd() public view returns(bool) {\n        return end;\n    }\n}",
  "sourcePath": "/Users/nasreenrazak/Documents/GitHub/dApp-react-tutorial/contracts/MasoomContract.sol",
  "compiler": {
    "name": "solc",
    "version": "0.5.16+commit.9c3226ce.Emscripten.clang"
  },
  "schemaVersion": "3.4.7",
  "updatedAt": "2022-06-21T03:23:11.151Z",
  "networkType": "ethereum",
  "devdoc": {
    "methods": {}
  },
  "userdoc": {
    "methods": {}
  }
}